:020000040000FA
:06000000FDEF00F012000C
:020006000000F8
:08000800D9CFE6FFE1CFD9FFDB
:10001000FE0EDB50826E846AFE0EDBB68480DBB897
:100020008482DBBA8484E552E7CFD9FF1200946A58
:10003000966A1200F86AD09EEA6AE96AC00EC11692
:100040000F0EC112C090C092C094C09EC280C69ACA
:10005000010EC66EC76AD190D56ACD6ACA6ACB6AEC
:10006000070EB46EA19CB56AF26AD16A1200939E23
:10007000939C1200D9CFE6FFE1CFD9FF040EE12611
:10008000FD0EDBCF02F0DB06FE0EDBCF03F001E25C
:10009000DB060250031023E0DE6ADE6ADE6ADD6AF8
:1000A000DD52DD52D9CFE9FFDACFEAFFD890030E57
:1000B000EB50000A08E6C20EEE5C010EEE58000E90
:1000C000EE58000EEE580AE2D9CFE9FFDACFEAFF88
:1000D000EE2A000EEE22EE22EE22E4D7D1D7040E55
:1000E000E15C02E2E16AE552E16EE552E7CFD9FF59
:1000F0001200D9CFE6FFE1CFD9FFFD0EDBCF02F032
:10010000DB06FE0EDBCF03F001E2DB06025003103C
:1001100002E00000F2D7E552E7CFD9FF12008ADFF4
:10012000816A3F0E936E400E8126F40EE66E010E3C
:0C013000E66EA0DFE552E552F6D71200A3
:04013C00060EF66E47
:10014000000EF76E000EF86E00010900F550656FA5
:100150000900F550666F03E1656701D03DD00900E5
:10016000F550606F0900F550616F0900F550626F3E
:1001700009000900F550E96E0900F550EA6E090022
:1001800009000900F550636F0900F550646F09001C
:100190000900F6CF67F0F7CF68F0F8CF69F060C0DC
:1001A000F6FF61C0F7FF62C0F8FF0001635302E190
:1001B000645307E00900F550EE6E6307F8E2640748
:1001C000F9D767C0F6FF68C0F7FF69C0F8FF000104
:0A01D0006507000E665BBFD7120042
:0601DA00000EF36E00EEC2
:1001E00000F0080E01D81200EA6002D0EE6AFCD7D7
:0A01F000F350E9601200EE6AFCD73C
:0601FA0013EE00F023EEFD
:1002000000F0F86A019C9EEC00F00BEC01F08FEC22
:0602100000F0FBD7120014
:020216001200D4
:06100000FDEF00F01200FC
:020000040030CA
:0100000020DF
:0100010002FC
:010002003FBE
:010003001EDE
:010005008179
:01000600A158
:010008000FE8
:01000900C036
:01000A000FE6
:01000B00E014
:01000C000FE4
:01000D0040B2
:00000001FF
