:020000040000FA
:0600000004EF0AF01200FB
:0610000004EF0AF01200EB
:02102A000000C4
:04102C006DD9FE0E6E
:10103000DB50826E846AFE0EDBB68480DBB884826D
:10104000DBBA84846FD1946A966A1200F86AD09EE3
:10105000EA6AE96AC00EC1160F0EC112C090C092B2
:10106000C094C09EC280C69A010EC66EC76AD19057
:10107000D56ACD6ACA6ACB6A070EB46EA19CB56AFE
:10108000F26AD16A1200939E939C12003DD9040E1D
:10109000E126FD0EDBCF02F0DB06FE0EDBCF03F018
:1010A00001E2DB060250031022E0DE6ADE6ADE6A3D
:1010B000DD6ADD52DD52D9CFE9FFDACFEAFFD89001
:1010C000030EEB50000A08E6C20EEE5C010EEE586D
:1010D000000EEE58000EEE58DCE2D9CFE9FFDACF71
:1010E000EAFFEE2A000EEE22EE22EE22E4D7040EF4
:1010F000E15C02E2E16AE552E16E14D1D9CFE6FF8C
:10110000E1CFD9FFFD0EDBCF02F0DB06FE0EDBCF19
:1011100003F001E2DB060250031002E00000F2D708
:10112000E552E7CFD9FF1200949496949396939446
:101130001200EAD88494829481968194FE0EDB504A
:10114000E82400016C6FFE0EDBAE06D06C516A27FE
:10115000D8B006D0848404D06C516A27D8B0828479
:10116000FD0EDB50E8246C6FFD0EDBAE06D06C513B
:101170006B27D8B006D0818604D06C516B27D8B0CD
:101180008184D0D0929092921200BED8FE0EC1D827
:10119000FE0EDBCFE7FF0250E726FE0EE7CFDBFFB8
:1011A0008080FE0EA5D802E0C1D8FBD78090FD0E4E
:1011B000B0D8FD0EDBCFE7FF0250E726FD0EE7CFEC
:1011C000DBFF8082FD0E94D802E0B0D8FBD780927E
:1011D000A9D09AD8040EE126DF6A010EDB6A956A6F
:1011E00035DFA2DF819C8AD8010E836EABD802E086
:1011F00070D8FCD7DF2A010EDB2ADFCF02F07F0E8A
:10120000E76E0218E8AE02D0E73402D0E750025C85
:10121000EAE374D8320E91D8020E836E030E68D8BA
:1012200004E090D8FBE055D8FCD7040E836E66D856
:1012300089D802E04ED8FCD7DF06010EDB06DF506E
:10124000F6E15CD81E0E79D8080E836E030E50D8D6
:1012500004E078D8FBE03DD8FCD7DF6A010EDB6AFA
:10126000DF6ADB6A100E836E49D86CD802E031D891
:10127000FCD7DF06010EDB06DFCF02F0036A02BEF9
:1012800003680334F1E302508008FF0E0354ECE3DB
:1012900035D81E0E52D8200E836E030E29D804E0D6
:1012A00051D8FBE016D8FCD7400E836E27D826D83D
:1012B00049D802E00ED8FCD7DF2A010EDB2ADFCFA7
:1012C00002F00234F4E2DF6A010EDB6A836801D8BF
:1012D000FED7010EDBCFE6FFDFCFE6FF2ADFE552C8
:1012E000E552010EE66EE66AD1DEE552E5521200E5
:1012F000DBCFF3FFDB06F35000091200640EF36E40
:10130000020EF3CFDBFF1200D9CFE6FFE1CFD9FF0A
:101310001200DBCFF3FFF390F342F3CFDBFF800E3D
:10132000026E1200E552E7CFD9FF1200040EE66EFE
:10133000E66AE4DEE552E5521200F36E030EF3CFE7
:0A134000DBFF1200020E78EF09F047
:06134A002A0EF66E100EE3
:10135000F76E000EF86E00010900F550656F090088
:10136000F550666F03E1656701D03DD00900F55087
:10137000606F0900F550616F0900F550626F090058
:101380000900F550E96E0900F550EA6E0900090000
:101390000900F550636F0900F550646F09000900FA
:1013A000F6CF67F0F7CF68F0F8CF69F060C0F6FFCE
:1013B00061C0F7FF62C0F8FF0001635302E16453AC
:1013C00007E00900F550EE6E6307F8E26407F9D70D
:1013D00067C0F6FF68C0F7FF69C0F8FF0001650746
:0813E000000E665BBFD712008E
:0813E800000EF36E00EE00F0B0
:1013F000080E01D81200EA6002D0EE6AFCD7F35062
:08140000E9601200EE6AFCD75E
:0814080013EE00F023EE00F0EA
:10141000F86A019CA5EC09F012EC0AF0E9EC08F07E
:04142000FBD71200E4
:021424001200B4
:020000040030CA
:0100000020DF
:0100010002FC
:010002003FBE
:010003001EDE
:010005008179
:010006008178
:010008000FE8
:01000900C036
:01000A000FE6
:01000B00E014
:01000C000FE4
:01000D0040B2
:00000001FF
