:020000040000FA
:0600000015EF15F01200DF
:0610000015EF15F01200CF
:02102A000000C4
:04102C0052EC0DF085
:10103000FB0EDBCFF3FFDB06F35000090AE0A0EC68
:101040000DF0FA0E0BEC0EF0F3E1151CF1E1010EC0
:1010500001D0000E81EF0DF052EC0DF03B0EE124BB
:1010600002E3E168E652E16E010EDB6A020EDB6A22
:10107000F90EDBCFF6FFFA0EDBCFF7FFFB0EDBCF6F
:10108000F8FF0800F550DF6EDF5002E1A5EF0CF02D
:10109000250EDF5C02E098EF0CF0030EDB6A040E15
:1010A000DB6A050EDB6A060EDB6A070EDB6ABAEC4A
:1010B0000CF02D0EDF5C0CE02B0EDF5C09E0200E47
:1010C000DF5C06E0230EDF5C03E0300EDF5C1AE13C
:1010D000DF50300A14E0130A0FE0030A0AE00B0A9B
:1010E00005E0060AE4E1030EDB80E1D7030EDB82B4
:1010F000DED7030EDB84DBD7030EDB86D8D7030EE7
:10110000DB88D5D72A0EDF5C1BE1B6EC0CF004ECD3
:101110000DF010E0030EDB8008680968130EDBCFCA
:101120000DF0140EDBCF0EF07DEC14F0040E06C0B3
:10113000DBFF03D0130EEDEC0CF0BAEC0CF00BD08F
:10114000090EDB6A5BEC0DF003E0CFEC0DF0FAD793
:10115000090EEDEC0CF0030EDBB0DB982E0EDF5C1D
:101160001BE1BAEC0CF02A0EDF5C0BE1B6EC0CF0E4
:1011700004EC0DF003E1130E3FEC0DF0BAEC0CF0B3
:101180000BD0090EDB6A5BEC0DF003E0CFEC0DF049
:10119000FAD7090E3FEC0DF0680EDF5C07E1BAEC00
:1011A0000CF0680EDF5C1DE1030E18D0740EDF5CDE
:1011B00017E07A0EDF5C14E0480EDF5C06E0540EA8
:1011C000DF5C03E05A0EDF5C02E1020E07D06C0E1A
:1011D000DF5C03E06A0EDF5C04E1010E92EC0DF0CF
:1011E000C9DBDF506E0A01E17FD31E0A01E192D113
:1011F000200A01E18FD13F0A01E149D11A0A01E138
:1012000046D10D0A01E143D1200A01E140D13A0A59
:1012100001E13DD1200A01E13AD1260A01E135D1AF
:101220000D0A01E132D11A0A01E1D9D0200A4AE0BF
:10123000300A1FE0460A0EE0250A01E083D3D950A8
:10124000F90FE96EFF0EDA20EA6E010EEE5E000E77
:10125000EE5AEE5AA0EC0DF0250EE66E95DB03E19A
:10126000151C01E169D39CEC0DF001E26BD3DB2A84
:1012700069D3080EDB6A040EDB50010806E2040E97
:10128000DB0464EC0DF0DB508BDB080EDB5009E077
:10129000030EDB50010B05E172DB01E04DD3080EBC
:1012A000DB6A64DBEFCFDFFF14EC0EF003E1151C0B
:1012B00001E142D39CEC0DF001E3DB2A60DB01E1AC
:1012C00041D33AD3070EDB5002080FE1E0EC0DF0FA
:1012D000030EA7EC0DF00E0EEECFDBFF0F0EEECFE0
:1012E000DBFF100EEECFDBFF20D0F70EDBCF17F0C9
:1012F000F80EDBCF18F0020E175E000E185AF70E2C
:1013000017C0DBFFF80E18C0DBFF17C0E9FF18C0DD
:10131000EAFF97EC0DF0166A0E0E14C0DBFF0F0EFD
:1013200015C0DBFF100E16C0DBFF0E0EDBCFE6FF95
:101330000F0EDBCFE6FF100EDBCFE6FF58EC14F00C
:10134000E552E552E552130E07C0DBFF140E08C04C
:10135000DBFF060EDB5005E0130EDBEC0DF001E2C7
:101360006ADBFFEC0DF002E2130E37DBC2EC0DF08E
:1013700006E0040EDBEC0DF002E2050E2EDB030EA0
:10138000DBB005D0FCDA01E0D7D2080EDB6A090E2B
:10139000DB6A0E0EDBCFF6FF0F0EDBCFF7FF100E72
:1013A000DBCFF8FF0800F550DF6EDF5014E005ECEE
:1013B0000EF011E214EC0EF003E1151C01E1BCD2B9
:1013C000BBDB01E3DB2A090EDB2AD9500E0FE96EE5
:1013D000000ECBDBE7D7D3DA01E1B4D2ADD2C6DA67
:1013E000110EEECFDBFF120EEDCFDBFF110EDBCFC8
:1013F000E6FF120EDBCFE6FF4AEC14F0E552E552B1
:10140000130EF3CFDBFF140EF4CFDBFF060EDB5021
:1014100004E0130ED0DB01E20EDBFFEC0DF002E284
:10142000130EDBDAAFDB05E0040EC5DB02E2050ECE
:10143000D4DA030EDBB005D0A2DA01E07DD2080ECB
:10144000DB6A090EDB6A110EDBCFE9FF120EDBCF80
:10145000EAFFEFCFDFFFDF5014E0D7DB12E2E4DB7F
:1014600003E1151C01E168D267DB01E3DB2A090E09
:10147000DB2A110EDB2ADBCFE9FF120EE8E3DB2AC1
:10148000E6D77DDA01E15ED257D2030EDB8E070E7E
:10149000DB0410E195DB040E5ADB0A0EEECFDBFF16
:1014A0000B0EEECFDBFF0C0EEECFDBFF0D0EEECF03
:1014B000DBFF6CD0070EDB5003082CE1030EDBAE24
:1014C0000DD0B2DA020E76DAEFCF14F0156A166A92
:1014D000176A14AE39D01568166835D0F70EDBCF11
:1014E00015F0F80EDBCF16F0020E155E000E165A40
:1014F000F70E15C0DBFFF80E16C0DBFF15C0E9FFC5
:1015000016C0EAFFEFCF14F00A0E14C0DBFF0B0E7B
:10151000DB6A38D0070EDB50020809E1030EDBAEB0
:1015200004D059DB16AE10D00ED055DB0DD0030E13
:10153000DBAE12D079DA020E3DDAF9DA166A176AF2
:1015400015AE02D016681768E2DA0C0E16C0DBFF83
:101550000D0E17C0DBFF1AD0F70EDBCF16F0F80E1A
:10156000DBCF17F0020E165E000E175AF70E16C0EC
:10157000DBFFF80E17C0DBFF16C0E9FF17C0EAFF5C
:10158000D6DAC5DA0C0EDB6A0D0EDB6A060EDB500E
:1015900005E1010EF36E050EF3CFDBFF150EDB6ADE
:1015A000160EDB6AD950370F146E000EDA20156E56
:1015B000390E14C0DBFF3A0E15C0DBFF380EDB6AB4
:1015C000080EDB6A0A0EAEDADF50780A12E0200A53
:1015D00010E0280A0CE0200A0AE03F0A06E00D0AA3
:1015E00002E0200A08E1020E05D0080E03D0080E22
:1015F000DF26100E97DA030EDBBE02D0DB92DB94FF
:10160000DB50800B24E08ADAD890030EEB50000AFE
:1016100008E6000EEE5C000EEE58000EEE58000ECE
:10162000EE5815E213DA0B680C680D680E68DAECF8
:1016300013F00A0E02C0DBFF0B0E03C0DBFF0C0E23
:1016400004C0DBFF0D0E05C0DBFF2D0E08D0030E1E
:10165000DBA202D02B0E03D0DBA408D0200EF36E49
:10166000170EF3CFDBFF150EDB2A02D0170EDB6A55
:10167000050EDB5003E1B7D901E189D0420E146EAB
:101680002A0E156E000E166E070EDBCF17F0186AC5
:10169000196A1A6A17C00BF018C00CF019C00DF0C7
:1016A0001AC00EF0D3D9AAEC14F014500224F36E31
:1016B00015500320F46E16500420F86EF4CFF7FF97
:1016C000F3CFF6FF0800090EF5CFDBFF580EDF5C05
:1016D0000FE1610EF36E090E7BD90AE3200E146E42
:1016E000090EDBCFE7FF1450E75E090EE7CFDBFF03
:1016F000070EDBCF14F0156A166A176A0FDA14C0EA
:101700000BF015C00CF016C00DF017C00EF0EECFA8
:1017100006F0EECF07F0EECF08F0EFCF09F0AAEC1D
:1017200014F009C0EDFF08C0EDFF07C0EDFF06C0D3
:10173000EFFF390EDBCFE9FFDB063A0EDBCFEAFF26
:1017400001E2DB06090EDBCFEFFF150EDB2A4BD9DA
:1017500095E1030EDBA61DD06F0EDF5C06E1C1D95B
:1017600018E3150EDB285BDA14D0780EDF5C09E095
:10177000580EDF5C06E0620EDF5C03E0420EDF5CC9
:1017800008E1020EF36E160EF3CFDBFF02D0150E4A
:10179000DB6A030EDB50100B0EE0040EDBCF14F0FF
:1017A000050EDB50D880145406E2060EDB5003E130
:1017B000040EDB5034DA95D90AE2050EDBCFE7FFE1
:1017C000150EDB50E75E050EE7CFDBFF02D0050EFE
:1017D000DB6A040EDBCF14F0160E45D9D880145402
:1017E00014E2160EDBCFE6FF150EDBCFE6FF040E8C
:1017F000DBCFE6FF050EDB50E552E75CE552D88013
:10180000E754E552D880E7545FD9030EDB50010B53
:101810000BE1080EDB5008E0B2D801E08DD0080ED5
:10182000DB50BED8080EDB6A170EDB5007E088D904
:10183000170EF1D903E1151C01E17ED0160EDB5025
:1018400016E07ED9300EE66E9FD802E1151C74E0DA
:1018500077D9DFCFE6FF98EC13F0E552E552E55279
:10186000F4CF15F00001F31C02E1151C65E0050E34
:10187000DBCF14F0160EDB50D880145409E2050EAD
:10188000DBCFE7FF160EDB50E75E050EE7CFDBFF91
:10189000300EE66E050ECBD94FE1390EDB2ADBCFD9
:1018A000E9FF3A0E01E3DB2ADBCFEAFF090EEFCFB7
:1018B000DBFFDB500EE044D9090EADD902E1151C67
:1018C0003BE0390EDB2ADBCFE9FF3A0EEDE3DB2A02
:1018D000EBD755D831E1160EDBCFE6FF080EC3D8A3
:1018E000E552E7245DD82ED0070EDB50030A1CE03A
:1018F000010A14E0030A07E07BD9DBCFEEFF020EFA
:10190000DBCFEDFF1FD0F5D8196A17AE02D01868EB
:1019100019682CD8BCD819C0EEFF14D0EAD817BE6D
:10192000186824D8B4D80ED063D9DBCFEFFF0AD023
:101930007BD905E1151C03E1F368F46810D0FCD8ED
:1019400001E3DB2A79D941EF08F0010EDBCF14F077
:10195000020EDBCF15F014C0F3FF15C0F4FF3B0EF1
:10196000E15C02E2E16AE552E16ECBD029D9020ED8
:10197000A7EF0DF061D90800F550DF6E1200200EC0
:10198000E66E080E17EF0EF098EC13F0E552E552F4
:10199000E552F3CF14F0F4CF15F00001F31C120060
:1019A000146E156AD950010F4DD91450EE261550FA
:1019B000ED221200185E000E195AF70E18C0DBFF58
:1019C000F80E19C0DBFF18C0E9FF19C0EAFF1200CA
:1019D000DBCFF4FFF350F45C1200DB50E76E040E33
:1019E000E7CFDBFF12000A0EDBCF14F00B0EDBCFCC
:1019F00015F00C0EDBCF16F00D0EDBCF17F01450E8
:101A00001510161017101200130EEECFDBFF140E78
:101A1000EDCFDBFF130EDBCF14F0140EDBCF15F090
:101A20000001800E15141200F70EDBCF18F0F80E2F
:101A3000DBCF19F01200050EDB50E66ED950130F04
:101A400001D9E552E750EE6EED6A12000A0EDBCFC7
:101A500006F00B0EDBCF07F00C0EDBCF08F00D0EFF
:101A6000DBCF09F01200DBCFE6FF150EDBCFE6FF80
:101A7000050EDB50E552E724E552E7241200DB5067
:101A8000CED8010EF36E060EF3CFDBFF1200EE5040
:101A9000EFCFEAFFE96E16C0EEFF17C0EEFF18C0E9
:101AA000EEFF1200D9CFE6FFDACFE6FFE1CFD9FF94
:101AB000E2CFDAFF1200DFCFE6FFE66AE5EC14F0D2
:101AC000E552E552F3501200E76E080EE7CFDBFF58
:101AD0001200EECF14F0EECF15F0EFCF16F0176A2C
:101AE0001200050EDBCF14F0150EDB50D880145415
:101AF0001200010EDBCF16F0020EDBCF17F0186AD2
:101B00001200E552E5CFDAFFE7CFD9FF12000A0E47
:101B100014C0DBFF0B0E15C0DBFF1200D9500A0FFB
:101B200022EF0EF0F36E070EF3CFDBFF1200EECFC5
:101B300014F0EFCF15F01200010EDB2A020E120096
:101B4000FC0EDBCFE6FFFD0EDBCFE6FF1200145EDE
:101B5000000E155AF70E14C0DBFFF80E15C0DBFFA0
:101B600014C0E9FF15C0EAFF1200DA20EA6EEF2A7E
:101B7000EECFF6FF000EEF22EECFF7FFEF22EECF13
:101B8000F8FF1200040EDBCFE6FF130EDB50E55228
:101B9000E75C9ADFDB5004DF060EDB501200090E13
:101BA000DB500A0DF350DF24D00FE76E090EE7CFAC
:101BB000DBFFBAEF0CF0DB50F36E050EE8EF0CF034
:101BC000F70EDBCF14F0F80EDBCF15F01200DFCFED
:101BD000E6FFC4EF0CF028DF030EECDE69EF0DF03A
:101BE00016EC08F0E552E552E552E5520009120004
:101BF000BDDEEE50EFCFEAFFE96E010E1200130ECC
:101C0000DB50F36E040EE8EF0CF0040EDB50F36EC5
:101C1000090EE8EF0CF0DBCFE6FFC4EF0CF0E76E47
:101C2000050EE7CFDBFF12008BDFE7EF0DF0DBCF18
:101C3000E6FF86DFF0EF0DF0D950F90FE96EFF0EE9
:0E1C4000B5EF0DF0E96E000EDA20EA6E12002C
:021C4E00D9CFEC
:101C5000E6FFE1CFD9FFFE0EDB50826E846AFE0EF6
:101C6000DBB68480DBB88482DBBA8484E552E7CFBC
:101C7000D9FF1200946A966A1200F86AD09EEA6A46
:101C8000E96AC00EC1160F0EC112C090C092C09476
:101C9000C09EC280C69A010EC66EC76AD190D56A30
:101CA000CD6ACA6ACB6A070EB46EA19CB56AF26AA5
:101CB000D16A1200939E939C1200D9CFE6FFE1CF28
:101CC000D9FF040EE126FD0EDBCF14F0DB06FE0E7D
:101CD000DBCF15F001E2DB061450151023E0DE6ABD
:101CE000DE6ADE6ADD6ADD52DD52D9CFE9FFDACF86
:101CF000EAFFD890030EEB50000A08E6C20EEE5C35
:101D0000010EEE58000EEE58000EEE580AE2D9CF42
:101D1000E9FFDACFEAFFEE2A000EEE22EE22EE22F3
:101D2000E4D7D1D7040EE15C02E2E16AE552E16E4C
:101D3000E552E7CFD9FF1200D9CFE6FFE1CFD9FFB7
:101D4000FD0EDBCF14F0DB06FE0EDBCF15F001E25B
:101D5000DB061450151002E00000F2D7E552E7CF81
:101D6000D9FF120083828390E1D98384DFD983AEC7
:101D700009D08394DBD98384D9D983948392010ECB
:101D800009D008D08394D2D98384D0D98394839204
:101D9000000E00D01200D9CFE6FFE1CFD9FF0F0E21
:101DA000831695169592959095948392839083943B
:101DB000C3D9300EE66E05D9E552050EE66ECEECBF
:101DC00014F0E552300EE66EFCD8E552010EE66ED8
:101DD000CEEC14F0E552320EE66EF3D8E552C2DFD7
:101DE000000901E0FCD7BEDF000901E0FCD7FE0ED0
:101DF000DBCFE6FFE6D8E552B5DF000901E0FCD70E
:101E0000080EE66EDED8E552ADDF000901E0FCD732
:101E10000F0EE66ED6D8E552A5DF000901E0FCD72B
:101E2000010EE66ECED8E5529DDF000901E0FCD739
:101E3000040EE66EC6D8E55295DF000901E0FCD736
:101E4000800EE66E9AD8E55200D0E552E7CFD9FF72
:101E50001200D9CFE6FFE1CFD9FFFC0EDBCFF6FFB2
:101E6000FD0EDBCFF7FFFE0EDBCFF8FF0800F550CD
:101E70001DE078DF000901E0FCD7FC0EDBCFF6FFA8
:101E8000FD0EDBCFF7FFFE0EDBCFF8FF0800F550AD
:101E9000E66EBAD8E552D950FC0FE96EFF0EDA2093
:101EA000EA6EEE2A000EEE22EE22D7D700D0E552DF
:101EB000E7CFD9FF1200D9CFE6FFE1CFD9FFE65235
:101EC0008382839033D9838431D9F00E8314DF6EFB
:101ED00083942CD983842AD983380F0B0F0BDF12FC
:101EE000839483927F0EDF1400D0E552E552E7CF52
:101EF000D9FF1200D9CFE6FFE1CFD9FFE6528382A6
:101F0000838014D9838412D9F00E8314DF6E8394F6
:101F10000DD983840BD983380F0B0F0BDF128394F9
:101F200083908392DF5000D0E552E552E7CFD9FF8E
:101F30001200D9CFE6FFE1CFD9FF0F0E9516831619
:101F4000FE0EDB504009F00B831283928390EED893
:101F50008384ECD883940F0E8316FE0EDB38F00BCF
:101F6000F00B8312E3D88384E1D88394F00E9512AA
:101F700000D0E552E7CFD9FF1200D9CFE6FFE1CF7D
:101F8000D9FF0F0E95168316FE0EDB508009F00B5D
:101F9000831283928390CAD88384C8D883940F0E07
:101FA0008316FE0EDB38F00BF00B8312BFD8838450
:101FB000BDD88394F00E951200D0E552E7CFD9FF3B
:101FC0001200D9CFE6FFE1CFD9FF0F0E9516831689
:101FD000FE0EDB50F00B831283928390A7D883848C
:101FE000A5D883940F0E8316FE0EDB38F00BF00B92
:101FF00083129CD883849AD88394F00E951200D0D3
:10200000E552E7CFD9FF1200D9CFE6FFE1CFD9FFE4
:102010000F0E95168316FE0EDB50F00B8312838095
:10202000839284D8838482D883940F0E8316FE0E05
:10203000DB38F00BF00B831279D8838477D8839444
:10204000F00E951200D0E552E7CFD9FF1200D9CF9C
:10205000E6FFE1CFD9FFFD0EDB5007E0FE0EDB50BF
:10206000400FE66E8ADFE55205D0FE0EDBCFE6FFBD
:1020700084DFE552E552E7CFD9FF1200E66AE66A4F
:10208000E6DFE552E552530EE66E2A0EE66E000ECE
:10209000E66EDFDEE552E552E552010EE66EE66AD7
:1020A000D6DFE552E552530EE66E2A0EE66E000EBE
:1020B000E66ECFDEE552E552E5521200D9CFE6FFDB
:1020C000E1CFD9FFFE0EDBCFE6FF9EDFE552E55202
:1020D000E7CFD9FF1200D9CFE6FFE1CFD9FFFE0E3F
:1020E000DBCFE6FF91DFE552E552E7CFD9FF1200E3
:1020F000280EE66E50DEE55235DE000901E0FCD721
:102100000C0EE66E5EDFE5522DDE000901E0FCD725
:10211000010EE66E56DFE55225DE000901E0FCD730
:10212000100EE66E4EDFE55295961200120EE66E28
:10213000F7EC14F0E55212001E0EE66EF7EC14F008
:10214000E5521200280EE66EF7EC14F0E55212008C
:10215000010EE66EE66AF0DDE552E5521200020E6F
:10216000E66EE66AE9DDE552E5521200030EE66E20
:10217000E66AE2DDE552E55212008A908A92938087
:10218000938212008A908A92EADF9380E1DF938241
:10219000E6DF9390DDDF9392E2DF00D01200DFDF15
:1021A0009390D6DF9382D4DF9380D9DF00D01200E2
:1021B0009390CEDF9382D3DF9392D1DF938012008E
:1021C0009380CDDF9382C4DF9392AFEF10F0D9CF2D
:1021D000E6FFE1CFD9FF020EE126DE52010EDD6EF1
:1021E000DF6A080EDF5C14E2FE0EDBAE02D09380E5
:1021F00001D093909382ACDF81A2FED79392FE0E22
:10220000DB50020DFE0EF3CFDBFFA2DFDF2AE9D7A2
:102210009380A5DF938281B002D0010EDB6A98DF44
:10222000939296DF8A92010EDB50146E020EE15CEF
:1022300003E200D0E16AE552E16E1450E552E7CFC7
:10224000D9FF1200D9CFE6FFE1CFD9FF020EE12678
:102250009380010EDB6ADF6A080EDF5C13E2938273
:1022600077DF010EDBCFF3FFF39EF346F3CFDBFF07
:1022700081A2FED781A002D0010EDB80939268DF9D
:10228000DF2AEAD7FE0EDB5002E0939001D0938064
:1022900093825EDF939293805BDF8A92010EDB5024
:1022A000146E020EE15C03E200D0E16AE552E16ED9
:1022B0001450E552E7CFD9FF1200D9CFE6FFE1CFA6
:1022C000D9FFE6525FDFFE0EDBCFE6FF80DFE5528F
:1022D000DF6E65DFDF5002E0000E01D0010E00D09E
:1022E000E552E552E7CFD9FF1200D9CFE6FFE1CFA3
:1022F000D9FFE65247DFFE0EDBCFE6FFFD0EDB44E3
:10230000010BE552E710FE0BE66E61DFE552FD0EB4
:10231000DBCFE6FF5CDFE55235DFFE0EDBCFE6FF0D
:10232000FD0EDB44010BE552E7100109E66E4FDFBD
:10233000E552E66A87DFE552DF6E31DFDF5000D01D
:10234000E552E552E7CFD9FF1200D9CFE6FFE1CF42
:10235000D9FF020EE12616DFFE0EDBCFE6FFFD0EF3
:10236000DB44010BE552E710FE0BE66E30DFE55271
:10237000FD0EDBCFE6FF2BDFE55204DFFE0EDBCFE9
:10238000E6FFFD0EDB44010BE552E7100109E66EA6
:102390001EDFE552010EE66E55DFE552DE6EDD6AA8
:1023A000DECF14F0DDCF15F014C015F0146A14C0A0
:1023B000DEFF15C0DDFFE66A45DFE552DE26000ED2
:1023C000DD22EDDEDECF14F0DDCF15F014C0F3FF1B
:1023D00015C0F4FF020EE15C03E200D0E16AE552B1
:1023E000E16EE552E7CFD9FF1200D9CFE6FFE1CF8A
:1023F000D9FFC8DEFE0EDBCFE6FFFD0EDB44010B8E
:10240000E552E710FE0BE66EE2DEE552FD0EDBCF95
:10241000E6FFDDDEE552FC0EDBCFE6FFD8DEE5525F
:10242000BEDEE552E7CFD9FF1200D9CFE6FFE1CFFC
:10243000D9FF020EE12621DC939C939E818C58DE0D
:10244000E66AE66A04DEE552E552820EE66E280E82
:10245000E66E000EE66EE668E6684AEC13F0146E6F
:10246000050EE15E1450010EE66EE66AF0DDE552FF
:10247000E552720EE66E280EE66E000EE66EE66817
:10248000E6684AEC13F0146E050EE15E1450838684
:10249000E80EE66E030EE66E10DCE552E552946A35
:1024A000966A6BDEDF6A010EDB6ADF6AFE0EDF5CB6
:1024B00001E396D0DFCFE6FF00DFE55200095CE0E4
:1024C000E66AE66AC4DDE552E552DFCFE6FFE66A7A
:1024D0005F0EE66E280EE66E000EE66EE668E668B3
:1024E0004AEC13F0146E070EE15E1450E80EE66E2F
:1024F000030EE66E5DEC0EF0E552E552010EDB6A6E
:102500000A0EF36E010EDBCFF4FFF350F45C33E2FE
:10251000010EE66EE66A9BDDE552E552010EDBCF69
:10252000E6FFDFCFE6FFE1DEE552E552E66EE66A62
:10253000010EDBCFE6FFE66A4B0EE66E280EE66E76
:10254000000EE66EE668E6684AEC13F0146E090EBB
:10255000E15E1450010EDBCFE6FF27EC0EF0E552F2
:10256000F40EE66E010EE66E5DEC0EF0E552E552FD
:10257000010EDB2AC5D731D0E66AE66A68DDE5528E
:10258000E552390EE66E280EE66E000EE66EE6683F
:10259000E6684AEC13F0146E050EE15E1450010E6D
:1025A000E66EE66A54DDE552E552DFCFE6FFE66A05
:1025B000240EE66E280EE66E000EE66EE668E6680D
:1025C0004AEC13F0146E070EE15E1450320EE66E04
:1025D000E66A5DEC0EF0E552E552020EDF2666D7A4
:1025E00061D7020EE15C02E2E16AE552E16EE5527A
:0625F000E7CFD9FF120045
:0A25F6002A0EF66E100EF76E000EAE
:10260000F86E00010900F550656F0900F550666F1E
:1026100003E1656701D03DD00900F550606F090006
:10262000F550616F0900F550626F09000900F5501F
:10263000E96E0900F550EA6E090009000900F5503D
:10264000636F0900F550646F09000900F6CF67F069
:10265000F7CF68F0F8CF69F060C0F6FF61C0F7FF10
:1026600062C0F8FF0001635302E1645307E0090010
:10267000F550EE6E6307F8E26407F9D767C0F6FF1E
:1026800068C0F7FF69C0F8FF00016507000E665BD0
:04269000BFD712009E
:0C269400D9CFE6FFDACFE6FFE1CFD9FF97
:1026A000E2CFDAFFE652E652E652E652D950F90F8F
:1026B000146EFF0EDA20156E14C0DEFFDD6EDECF65
:1026C000E6FFDDCFE6FFF90EDBCFE6FFFA0EDBCF4C
:1026D000E6FFFB0EDBCFE6FFFC0EDBCFE6FFFD0ED9
:1026E000DBCFE6FF2CEC08F0146E070EE15C02E293
:1026F000E16AE552E16E1450020EF3CFDBFF030EE8
:10270000F4CFDBFF020EDBCF14F0030EDBCF15F0AE
:1027100014C0F3FF15C0F4FF040EE15C02E2E16AAD
:10272000E552E16EE552E5CFDAFFE7CFD9FF1200BF
:10273000D9CFE6FFDACFE6FFE1CFD9FFE2CFDAFF6C
:10274000FB0EDBCF14F0FC0EDBCF15F00001800E8A
:1027500015141AE1FB0EDBCFE9FFFC0EDBCFEAFF1D
:10276000EECFF3FFEDCFF4FFEE2A000EEF22F3CF12
:10277000E9FFF4CFEAFFFD0EDBCFEFFFEF50156A64
:10278000F36E15C0F4FF10D0FB0EDB50FE0806E11F
:10279000FD0EDBCFE6FF07EC15F005D0FD0EDBCF1D
:1027A000E6FF6BEC10F0E552E552E5CFDAFFE7CF3C
:0427B000D9FF12003B
:0C27B40006500B02F3CF02F0F4CF03F04C
:1027C0000C02F3500326000EF420046E06500D0296
:1027D000F3500426000EF420056E06500E02F3504E
:1027E000052607500B02F3500326F4500422000E76
:1027F000052207500C02F3500426F450052207501E
:102800000D02F350052608500B02F3500426F45035
:10281000052208500C02F350052609500B02F35014
:042820000526120077
:0C2824005363616E6E696E67206C6F6319
:102830003A253032782020200020206932635F73EF
:1028400063616E6E657220202020006D656D6F7271
:10285000792025783D3078253032782020200046B8
:102860006F756E64204932432061742025782020E2
:10287000200020206932635F7363616E6E65722091
:10288000200050494353544152205A434F4E545212
:032890004F4C00AA
:0C289400FE0EE3CFE9FFFF0EE3CFEAFFEA
:1028A000F36AF46AEE5203E0F34AF42AFBD712000B
:1028B000FF0EE3CFF8FFE552FF0EE3CFF7FFE5523F
:1028C000FF0EE3CFF6FFE552E66AE66AE66A090024
:1028D000F55209E0FD0EE32A05E1FE0EE32A02E1CE
:1028E000FF0EE32AF4D7FD0EE3CF07F0FE0EE3CF91
:0A28F00008F0FF0EE3CF09F012001C
:0628FA0009C013F008C044
:1029000012F008500D02F4CF07F0F3CF06F0095093
:102910000E02F4CF09F0F3CF08F00D02F3500726B2
:10292000F4500822E86A092212500E02F3500726DA
:10293000F4500822E86A09220EAEA3EF14F01250F8
:10294000085E1350095A13AE000C0D50085E0E506D
:04295000095A000C14
:0C295400056A046A036A026A200EE76E3E
:10296000D89006360736083609360236033604365E
:1029700005360B50025C0C5003580D5004580E5095
:10298000055809E30B50025E0C50035A0D50045ACF
:0C2990000E50055A062AE72EE4D712006C
:04299C00FF0EE350F7
:1029A0001C6EEF0E01D0F30EE76EE72ED5EF14F09C
:1029B0000C0E1B6EE76AE72EDBEF14F01B2EDAEF2E
:0A29C00014F01C2ED3EF14F01200E7
:0629CA00F36AF46AFF0E3F
:1029D000E124E96EFF0EE220EA6EED6607D02F0ECD
:0E29E000EF6404D03A0EEF6001D0F32A12002B
:0229EE00FF0EDA
:1029F000E3501C6E480E01D04C0EE76EE72EFED75A
:0E2A0000E76AE72EFED71C2EF7D70000120063
:022A0E00FF0EB9
:102A1000E350ACBA04D0AF6AAB8EAC8A949CACA243
:0A2A2000FED7AD6EF36EF46A1200EB
:062A2A0013EE00F023EEA4
:102A300000F0F86A019CFBEC12F015EC12F0FDD7E7
:022A4000120082
:0E2A42003031323334353637383961626364EF
:032A5000656600B8
:0D2A530020202020202020202020202020D6
:042A60002020200012
:020000040030CA
:0100000020DF
:0100010002FC
:010002003FBE
:010003001EDE
:010005008179
:01000600A158
:010008000FE8
:01000900C036
:01000A000FE6
:01000B00E014
:01000C000FE4
:01000D0040B2
:00000001FF
