:020000040000FA
:06000000ADEF09F0120053
:06100000ADEF09F0120043
:02102A000000C4
:04102C001ED9FE0EBD
:10103000DB50826E846AFE0EDBB68480DBB884826D
:10104000DBBA848420D1946A966A1200F86AD09E32
:10105000EA6AE96AC00EC1160F0EC112C090C092B2
:10106000C094C09EC280C69A010EC66EC76AD19057
:10107000D56ACD6ACA6ACB6A070EB46EA19CB56AFE
:10108000F26AD16A1200939E939C1200EED8040E6D
:10109000E126FD0EDBCF02F0DB06FE0EDBCF03F018
:1010A00001E2DB060250031022E0DE6ADE6ADE6A3D
:1010B000DD6ADD52DD52D9CFE9FFDACFEAFFD89001
:1010C000030EEB50000A08E6C20EEE5C010EEE586D
:1010D000000EEE58000EEE58DCE2D9CFE9FFDACF71
:1010E000EAFFEE2A000EEE22EE22EE22E4D7040EF4
:1010F000E15C02E2E16AE552E16EC5D0D9CFE6FFDC
:10110000E1CFD9FFFD0EDBCF02F0DB06FE0EDBCF19
:1011100003F001E2DB060250031002E00000F2D708
:10112000E552E7CFD9FF1200949496949396939446
:1011300012009BD88494829481968194FE0EDB5099
:10114000E82400016C6FFE0EDBAE06D06C516A27FE
:10115000D8B006D0848404D06C516A27D8B0828479
:10116000FD0EDB50E8246C6FFD0EDBAE06D06C513B
:101170006B27D8B006D0818604D06C516B27D8B0CD
:10118000818481D09290929212006FD8FE0E72D814
:10119000FE0EDBCFE7FF0250E726FE0EE7CFDBFFB8
:1011A0008080FE0EDBCFF3FFDB06F350000902E088
:1011B0006ED8F7D78090FD0E5DD8FD0EDBCFE7FF30
:1011C0000250E726FD0EE7CFDBFF8082FD0EDBCF6E
:1011D000F3FFDB06F350000902E059D8F7D78092FD
:1011E00052D043D8030EE12631DFCCDF0F0EC16EA3
:1011F000956A010E836EDB6A020EDB68C80EDF6E35
:10120000DF50DF06000902E020D8FAD7020E836E15
:10121000DE52800EDD6EF36E020EF3CFDBFFC80EE2
:10122000DF6EDF50DF06000902E00FD8FAD7040EA8
:10123000836E010EDB68020EDB6AC80EDF6EDF50C4
:10124000DF060009D6E001D8FAD7020EDBCFE6FFB1
:10125000010EDBCFE6FF99DFE552E552120EE66E96
:10126000E66A14DFE552E5521200D9CFE6FFE1CF7E
:10127000D9FF1200DBCFF3FFF390F342F3CFDBFF94
:10128000800E026E1200E552E7CFD9FF1200040E65
:0C129000E66EE66A33DFE552E55212001C
:04129C002A0EF66EB2
:1012A000100EF76E000EF86E00010900F550656F24
:1012B0000900F550666F03E1656701D03DD0090074
:1012C000F550606F0900F550616F0900F550626FCD
:1012D00009000900F550E96E0900F550EA6E0900B1
:1012E00009000900F550636F0900F550646F0900AB
:1012F0000900F6CF67F0F7CF68F0F8CF69F060C06B
:10130000F6FF61C0F7FF62C0F8FF0001635302E11E
:10131000645307E00900F550EE6E6307F8E26407D6
:10132000F9D767C0F6FF68C0F7FF69C0F8FF000192
:0A1330006507000E665BBFD71200D0
:06133A00000EF36E00EE50
:1013400000F0080E01D81200EA6002D0EE6AFCD765
:0A135000F350E9601200EE6AFCD7CA
:06135A0013EE00F023EE8B
:1013600000F0F86A019C4EEC09F0BBEC09F0F1ECDE
:0613700008F0FBD712009B
:02137600120063
:020000040030CA
:0100000020DF
:0100010002FC
:010002003FBE
:010003001EDE
:010005008179
:010006008178
:010008000FE8
:01000900C036
:01000A000FE6
:01000B00E014
:01000C000FE4
:01000D0040B2
:00000001FF
