:020000040000FA
:0600000092EF02F0120075
:0A00060001003C0500006A00000044
:0400100004000000E8
:0C001400D9CFE6FFE1CFD9FF040EE126B2
:10002000FD0EDBCF02F0DB06FE0EDBCF03F001E2BC
:10003000DB060250031023E0DE6ADE6ADE6ADD6A58
:10004000DD52DD52D9CFE9FFDACFEAFFD890030EB7
:10005000EB50000A08E6C20EEE5C010EEE58000EF0
:10006000EE58000EEE580AE2D9CFE9FFDACFEAFFE8
:10007000EE2A000EEE22EE22EE22E4D7D1D7040EB5
:10008000E15C02E2E16AE552E16EE552E7CFD9FFB9
:100090001200D9CFE6FFE1CFD9FFFD0EDBCF02F092
:1000A000DB06FE0EDBCF03F001E2DB06025003109D
:1000B00002E00000F2D7E552E7CFD9FF1200DACF15
:1000C000E4FFE2CFDAFFE9CFE4FFEACFE4FFF6CFC7
:1000D000E4FFF7CFE4FFF5CFE4FFF3CFE4FFF4CF85
:1000E000E4FFFACFE4FF00EE00F0020EE80403E3C1
:1000F000EECFE4FFFBD700EE02F0020EE80403E3CC
:10010000EECFE4FFFBD7E652F2A404D0440ED66E45
:10011000F294E8D8E55200EE03F0020EE80403E39F
:10012000E5CFEDFFFBD700EE01F0020EE80403E39C
:10013000E5CFEDFFFBD7E5CFFAFFE5CFF4FFE5CF45
:10014000F3FFE5CFF5FFE5CFF7FFE5CFF6FFE5CF0E
:10015000EAFFE5CFE9FFE5CFDAFF1100200EF26EEE
:10016000840EF16ED08ED76AD66AD50EE66E76EC26
:1001700002F0E5521200D9CFE6FFE1CFD9FFFE0E23
:10018000DB50826E846AFE0EDBB68480DBB884822C
:10019000DBBA8484E552E7CFD9FF1200946A966AED
:1001A0001200F86AD09EEA6AE96AC00EC1160F0E04
:1001B000C112070EB46EC090C092C094C09EC2809F
:1001C000C69A010EC66EC76AD190800ED56ECD6AF2
:1001D000CA6ACB6AB46AA19CB56AF26AD16A120093
:1001E000939E939C120094949694939693941200E9
:1001F000D9CFE6FFE1CFD9FF849482948196819490
:10020000FE0EDB50E8240001706FFE0EDBAE05D061
:1002100070516E27D8A0848404D070516E27D8B056
:100220008284FD0EDB50E824706FFD0EDBAE05D03E
:1002300070516F27D8A0818604D070516F27D8B035
:100240008184E552E7CFD9FF12009290929212007A
:10025000D9CFE6FFE1CFD9FFFE0EDBCFF3FFF3905E
:10026000F342F3CFDBFF800E026EFE0EDBCFE7FF23
:100270000250E726FE0EE7CFDBFF8080FE0EDBCFCD
:10028000F3FFDB06F350000907E0040EE66EE66AB2
:1002900000DFE552E552F2D78090FD0EDBCFF3FF91
:1002A000F390F342F3CFDBFF800E026EFD0EDBCF47
:1002B000E7FF0250E726FD0EE7CFDBFF8082FD0E51
:1002C000DBCFF3FFDB06F350000907E0040EE66E18
:1002D000E66ADFDEE552E552F2D78092E552E7CFDB
:1002E000D9FF12006BC0E6FF6AC0E6FF81DFE5526E
:1002F000E5521200D9CFE6FFE1CFD9FFE652956A69
:1003000050DF71DF6DDF819C29DFF28E010E836E7D
:1003100000016A6B6B6B7F0EE76E6A19E8AE02D064
:10032000E73402D0E7506A5D11E2640EDF6EDF5001
:10033000DF06000907E0010EE66EE66A6BDEE552B5
:10034000E552F5D700016A2B6B2BE5D7020E836EC1
:10035000880EE66E130EE66E5DDEE552E552040E83
:10036000836E000E0001E76E6A19E8AE02D06A35AE
:1003700003D0E750D8806A5511E2640EDF6EDF507B
:10038000DF06000907E0010EE66EE66A43DEE5528D
:10039000E552F5D700016A076B07E3D7080E836EB5
:1003A000B80EE66E0B0EE66E35DEE552E552100E27
:1003B000836E6AC002F0036A02BE0368033404E37A
:1003C00002508008FF0E035411E2640EDF6EDF500E
:1003D000DF06000907E0010EE66EE66A1BDEE55265
:1003E000E552F5D700016A076B07E3D7200E836E4D
:1003F000B80EE66E0B0EE66E0DDEE552E552400ECF
:10040000836E640EDF6E00016A3511E3640EDF6EE9
:10041000DF50DF06000907E0010EE66EE66AFADD4E
:10042000E552E552F5D700016A2B6B2BECD76A6BCE
:100430006B6B8368010EE66EE66AECDDE552E55211
:0E044000F9D764D7E552E552E7CFD9FF120095
:02044E00060E98
:10045000F66E000EF76E000EF86E00010900F55002
:10046000656F0900F550666F03E1656701D03DD007
:100470000900F550606F0900F550616F0900F550F3
:10048000626F09000900F550E96E0900F550EA6E47
:10049000090009000900F550636F0900F550646F09
:1004A00009000900F6CF67F0F7CF68F0F8CF69F0E0
:1004B00060C0F6FF61C0F7FF62C0F8FF0001635340
:1004C00002E1645307E00900F550EE6E6307F8E2BD
:1004D0006407F9D767C0F6FF68C0F7FF69C0F8FF87
:0C04E00000016507000E665BBFD712002C
:0404EC00D9CFE6FF7F
:1004F000DACFE6FFE1CFD9FFE2CFDAFFFD0EDB5026
:100500007F0BD56ED76AD66AF294FD0EDBAE02D0B1
:10051000F28A01D0F29AD58EE552E5CFDAFFE7CF25
:04052000D9FF1200ED
:0C05240013EE00F023EE00F0F86A019CDA
:0C05300027EC02F07AEC01F0FDD712007D
:04053C0000000000BB
:0610000092EF02F0120065
:061008005FEF00F0120092
:020000040030CA
:0100000020DF
:0100010002FC
:010002003FBE
:010003001EDE
:010005008179
:01000600A158
:010008000FE8
:01000900C036
:01000A000FE6
:01000B00E014
:01000C000FE4
:01000D0040B2
:00000001FF
