:020000040000FA
:06000000D6EF0BF0120028
:06100000D6EF0BF0120018
:02102A000000C4
:04102C00D9CFE6FF33
:10103000E1CFD9FFFE0EDB50826E846AFE0EDBB676
:101040008480DBB88482DBBA8484E552E7CFD9FFA1
:101050001200F86AD09EEA6AE96AC00EC1160F0E45
:10106000C112070EB46EC090C092C094C09EC280E0
:10107000C69A010EC66EC76AD190800ED56ECD6A33
:10108000CA6ACB6AB46AA19CB56AF26AD16A1200D4
:10109000D9CFE6FFE1CFD9FF040EE126FD0EDBCF6D
:1010A00010F0DB06FE0EDBCF11F001E2DB06105084
:1010B000111023E0DE6ADE6ADE6ADD6ADD52DD528F
:1010C000D9CFE9FFDACFEAFFD890030EEB50000A40
:1010D00008E6C20EEE5C010EEE58000EEE58000E51
:1010E000EE580AE2D9CFE9FFDACFEAFFEE2A000E86
:1010F000EE22EE22EE22E4D7D1D7040EE15C02E22A
:10110000E16AE552E16EE552E7CFD9FF1200D9CF8F
:10111000E6FFE1CFD9FFFD0EDBCF10F0DB06FE0EC0
:10112000DBCF11F001E2DB061050111002E00000ED
:10113000F2D7E552E7CFD9FF1200D9CFE6FFE1CFD2
:10114000D9FF060EE126FD0EDBCF14F0FE0EDBCF3D
:1011500015F0166A176A800E106E1A0E116E060EC2
:10116000126E136A10C006F011C007F012C008F02A
:1011700013C009F014C00BF015C00CF016C00DF030
:1011800017C00EF0D1EC0AF0040E06C0DBFF050E0E
:1011900007C0DBFF040EDBCF14F0050EDBCF15F02C
:1011A000166A176AFB0EDBCF10F0FC0EDBCF11F0D6
:1011B000126A136A900E0B6E010E0C6E0D6A0E6AA7
:1011C00010C006F011C007F012C008F013C009F0FB
:1011D00054EC0BF002C010F003C011F004C012F088
:1011E00005C013F010C006F011C007F012C008F0DF
:1011F00013C009F014C00BF015C00CF016C00DF0B0
:1012000017C00EF08CEC0BF006C0DEFF07C0DEFF4F
:1012100008C0DEFF09C0DDFFDD52DD52D9CFE9FF96
:10122000DACFEAFFEF06EECF10F0000EEF5AEECF66
:1012300011F0EF5AEECF12F0EF5AEFCF13F010503B
:1012400011101210131015E0040EDBCFE6FF050E8F
:10125000DBCFE6FF5CDFE552E5528088040EDBCF92
:10126000E6FF050EDBCFE6FF52DFE552E552809840
:10127000D5D7060EE15C02E2E16AE552E16EE55285
:10128000E7CFD9FF1200D9CFE6FFE1CFD9FF020E99
:10129000E126640EDE6EDD6ADFCF10F0DF06010EA0
:1012A000DBCF11F001E2DB061050111011E0808855
:1012B000900EE66E010EE66E2ADFE552E55280984A
:1012C000900EE66E010EE66E22DFE552E552E4D79F
:1012D000020EE15C02E2E16AE552E16EE552E7CF1F
:1012E000D9FF1200D9CFE6FFE1CFD9FFFE0EDBCF49
:1012F000F3FFDB06F350000909E0C5DF2C0EE66EB4
:10130000010EE66EC5DEE552E552F0D7E552E7CFB5
:10131000D9FF1200D9CFE6FFE1CFD9FF040EE126B5
:10132000DF68DF5064083EE2DF50106E116AFF0E86
:10133000D8801056000E1156080E0D6E0E6A10C0A1
:1013400008F011C009F0ABEC0AF008C010F009C0B9
:1013500011F0010E10C0DBFFDF50080D020EF3CFBD
:10136000DBFF030EF4CFDBFF010EDBCFF3FFDB0669
:10137000F350000915E08088020EDBCFE6FF030E74
:10138000DBCFE6FFC4DEE552E5528098020EDBCFEC
:10139000E6FF030EDBCFE6FFBADEE552E552E4D707
:1013A000DF06BFD7040EE15C02E2E16AE552E16EBE
:1013B000E552E7CFD9FF1200D9CFE6FFE1CFD9FF41
:1013C000040EE126640EDF6EDF50106E116AD890B5
:1013D000115004E6FF0E105C000E11583EE2DF5083
:1013E000106E116AFF0ED8801056000E1156080EAE
:1013F0000D6E0E6A10C008F011C009F0ABEC0AF0D7
:1014000008C010F009C011F0010E10C0DBFFDF5062
:10141000080D020EF3CFDBFF030EF4CFDBFF010E4E
:10142000DBCFF3FFDB06F350000915E08088020EE6
:10143000DBCFE6FF030EDBCFE6FF69DEE552E552C8
:101440008098020EDBCFE6FF030EDBCFE6FF5FDE08
:10145000E552E552E4D7DF2AB7D7040EE15C02E299
:10146000E16AE552E16EE552E7CFD9FF12009298AA
:101470001200D9CFE6FFE1CFD9FFE652DF6A956AC5
:101480008368E7DDF4DFE80EE66E030EE66E00DE4D
:10149000E552E552010E836EE80EE66E030EE66E2F
:1014A000900EE66E010EE66E48DEE552E552E5521C
:1014B000E552E80EE66E030EE66EEADDE552E55211
:1014C000F40EE66E010EE66EE80EE66E030EE66EB4
:1014D00034DEE552E552E552E552E80EE66E030EC3
:1014E000E66ED6DDE552E552C80EE66EE66A880E77
:1014F000E66E130EE66E21DEE552E552E552E55248
:10150000E80EE66E030EE66EC3DDE552E552020E0E
:10151000836EB9DED00EE66E070EE66EB9DDE552DB
:10152000E552040E836EF6DEE80EE66E030EE66EFE
:10153000AFDDE552E552080E836E3EDFE80EE66E43
:10154000030EE66EA5DDE552E552A4D7E552E5525D
:06155000E7CFD9FF1200F5
:0A155600006A0EAEB4EF0AF00D6C4F
:101560000E1EE86A0E22001E09AEBCEF0AF0086CDF
:10157000091EE86A0922001EB0EC0BF009BECCEF90
:101580000AF000AE000C086C091EE86A0922046C1F
:10159000051EE86A0522000C00BEC3EF0AF00188B0
:1015A000FF0C006AE86A0EAEDEEF0AF00B6C0C1E50
:1015B0000D1E0E1E0C220D220E22001E09AEE9EF9A
:1015C0000AF0066C071E081E091E072208220922BF
:1015D000001E8CEC0BF009BE00EF0BF000AE000C0F
:1015E000066C071E081E091EE86A07220822092247
:1015F000026C031E041E051E032204220522000C99
:0A16000000BEF0EF0AF00188FF0CB5
:06160A002A0EF66E100E20
:10161000F76E000EF86E00010900F550656F0900C5
:10162000F550666F03E1656701D03DD00900F550C4
:10163000606F0900F550616F0900F550626F090095
:101640000900F550E96E0900F550EA6E090009003D
:101650000900F550636F0900F550646F0900090037
:10166000F6CF67F0F7CF68F0F8CF69F060C0F6FF0B
:1016700061C0F7FF62C0F8FF0001635302E16453E9
:1016800007E00900F550EE6E6307F8E26407F9D74A
:1016900067C0F6FF68C0F7FF69C0F8FF0001650783
:0816A000000E665BBFD71200CB
:0816A80006500B02F3CF02F023
:1016B000F4CF03F00C02F3500326000EF420046E66
:1016C00006500D02F3500426000EF420056E06505D
:1016D0000E02F350052607500B02F3500326F45078
:1016E0000422000E052207500C02F3500426F45089
:1016F000052207500D02F350052608500B02F35047
:101700000426F450052208500C02F3500526095017
:081710000B02F3500526120044
:08171800056A046A036A026A13
:10172000200EE76ED89006360736083609360236A0
:101730000336043605360B50025C0C5003580D502E
:1017400004580E50055809E30B50025E0C50035A22
:101750000D50045A0E50055A062AE72EE4D71200FF
:10176000056A046A100EE76ED8900836093604360A
:1017700005360D50045C0E50055805E30D50045E0F
:0C1780000E50055A082AE72EF0D7120080
:04178C00000EF36EEA
:1017900000EE00F0040E01D81200EA6002D0EE6AFA
:0C17A000FCD7F350E9601200EE6AFCD7A1
:0417AC0013EE00F048
:1017B00023EE00F0F86A019C05EC0BF0E4EC0BF072
:0817C00039EC0AF0FBD712001E
:0217C80012000D
:00000001FF
