:020000040000FA
:06000000CCEF0AF0120033
:06100000CCEF0AF0120023
:02102A000000C4
:04102C00D9CFE6FF33
:10103000E1CFD9FFFE0EDB50826E846AFE0EDBB676
:101040008480DBB88482DBBA8484E552E7CFD9FFA1
:101050001200F86AD09EEA6AE96AC00EC1160F0E45
:10106000C112070EB46EC090C092C094C09EC280E0
:10107000C69A010EC66EC76AD190800ED56ECD6A33
:10108000CA6ACB6AB46AA19CB56AF26AD16A1200D4
:10109000D9CFE6FFE1CFD9FF040EE126FD0EDBCF6D
:1010A00002F0DB06FE0EDBCF03F001E2DB060250AE
:1010B000031023E0DE6ADE6ADE6ADD6ADD52DD529D
:1010C000D9CFE9FFDACFEAFFD890030EEB50000A40
:1010D00008E6C20EEE5C010EEE58000EEE58000E51
:1010E000EE580AE2D9CFE9FFDACFEAFFEE2A000E86
:1010F000EE22EE22EE22E4D7D1D7040EE15C02E22A
:10110000E16AE552E16EE552E7CFD9FF1200D9CF8F
:10111000E6FFE1CFD9FFFD0EDBCF02F0DB06FE0ECE
:10112000DBCF03F001E2DB060250031002E0000017
:10113000F2D7E552E7CFD9FF120093949396969495
:1011400094941200D9CFE6FFE1CFD9FF8194819624
:1011500084948294FE0EDB50E82400016C6FFE0E36
:10116000DBAE05D06C516A27D8A0818404D06C51C5
:101170006A27D8B08186FD0EDB50E8246C6FFD0E27
:10118000DBAE05D06C516B27D8A0848404D06C51A1
:101190006B27D8B08284E552E7CFD9FF1200929036
:1011A00092921200D9CFE6FFE1CFD9FFFE0EDBCF3E
:1011B000F3FFF390F342F3CFDBFF800E026EFE0EDF
:1011C000DBCFE7FF0250E726FE0EE7CFDBFF808094
:1011D000FE0EDBCFF3FFDB06F350000907E0040E41
:1011E000E66EE66A94DFE552E552F2D78090FD0E96
:1011F000DBCFF3FFF390F342F3CFDBFF800E026E01
:10120000FD0EDBCFE7FF0250E726FD0EE7CFDBFF49
:101210008082FD0EDBCFF3FFDB06F350000907E011
:10122000040EE66EE66A73DFE552E552F2D780926D
:10123000E552E7CFD9FF1200D9CFE6FFE1CFD9FFC2
:10124000040EE126DF6A010EDB6A956A02DF75DFB4
:10125000819E640EF36E020EF3CFDBFF010E836EF0
:10126000020EDBCFF3FFDB06F35000090FE0010EA7
:10127000DBCFE6FFDFCFE6FF65DFE552E552010E8B
:10128000E66EE66A05DFE552E552EAD7DF2A010E8F
:10129000DB2ADFCF02F07F0EE76E0218E8AE02D045
:1012A000E73402D0E750025CD4E3640EF36E020E22
:1012B000F3CFDBFF320EF36E030EF3CFDBFF020E34
:1012C000836E030EDBCFF3FFDB06F350000917E05C
:1012D000020EDBCFF3FFDB06F35000090FE0010E37
:1012E000DBCFE6FFDFCFE6FF2DDFE552E552010E53
:1012F000E66EE66ACDDEE552E552EAD7E2D7040EA5
:10130000836E640EF36E020EF3CFDBFF020EDBCFB3
:10131000F3FFDB06F35000090FE0010EDBCFE6FF21
:10132000DFCFE6FF0FDFE552E552010EE66EE66A1B
:10133000AFDEE552E552EAD7DF06010EDB06DF50ED
:10134000E0E1640EF36E020EF3CFDBFF1E0EF36ED0
:10135000030EF3CFDBFF080E836E030EDBCFF3FF2C
:10136000DB06F350000917E0020EDBCFF3FFDB06CC
:10137000F35000090FE0010EDBCFE6FFDFCFE6FF01
:10138000E1DEE552E552010EE66EE66A81DEE552E7
:10139000E552EAD7E2D7DF6A010EDB6ADF6ADB6A71
:1013A000100E836E640EF36E020EF3CFDBFF020E9F
:1013B000DBCFF3FFDB06F35000090FE0010EDBCFBC
:1013C000E6FFDFCFE6FFBEDEE552E552010EE66E38
:1013D000E66A5EDEE552E552EAD7DF06010EDB067D
:1013E000DFCF02F0036A02BE0368033404E3025055
:1013F0008008FF0E0354D6E3640EF36E020EF3CFA3
:10140000DBFF1E0EF36E030EF3CFDBFF200E836EA9
:10141000030EDBCFF3FFDB06F350000917E0020EEB
:10142000DBCFF3FFDB06F35000090FE0010EDBCF4B
:10143000E6FFDFCFE6FF86DEE552E552010EE66EFF
:10144000E66A26DEE552E552EAD7E2D7400E836E21
:10145000640EF36E020EF3CFDBFF640EF36E020E2A
:10146000F3CFDBFF020EDBCFF3FFDB06F350000907
:101470000FE0010EDBCFE6FFDFCFE6FF63DEE552D4
:10148000E552010EE66EE66A03DEE552E552EAD762
:10149000DF2A010EDB2ADFCF02F00234DEE2DF6A50
:1014A000010EDB6A8368010EDBCFE6FFDFCFE6FFCC
:1014B00049DEE552E552010EE66EE66AE9DDE552E7
:1014C000E552F1D7C6D6040EE15C02E2E16AE552CC
:0A14D000E16EE552E7CFD9FF1200EC
:0614DA002A0EF66E100E52
:1014E000F76E000EF86E00010900F550656F0900F7
:1014F000F550666F03E1656701D03DD00900F550F6
:10150000606F0900F550616F0900F550626F0900C6
:101510000900F550E96E0900F550EA6E090009006E
:101520000900F550636F0900F550646F0900090068
:10153000F6CF67F0F7CF68F0F8CF69F060C0F6FF3C
:1015400061C0F7FF62C0F8FF0001635302E164531A
:1015500007E00900F550EE6E6307F8E26407F9D77B
:1015600067C0F6FF68C0F7FF69C0F8FF00016507B4
:08157000000E665BBFD71200FC
:08157800000EF36E00EE00F01E
:10158000040E01D81200EA6002D0EE6AFCD7F350D4
:08159000E9601200EE6AFCD7CD
:0815980013EE00F023EE00F059
:1015A000F86A019C6DEC0AF0DAEC0AF01CEC09F028
:0415B000FBD7120053
:0215B400120023
:020000040030CA
:0100000020DF
:0100010002FC
:010002003FBE
:010003001EDE
:010005008179
:010006008178
:010008000FE8
:01000900C036
:01000A000FE6
:01000B00E014
:01000C000FE4
:01000D0040B2
:00000001FF
