:020000040000FA
:0600000055EF0BF01200A9
:0610000055EF0BF0120099
:0610080032EF0AF01200B5
:02102A000000C4
:04102C00D9CFE6FF33
:10103000E1CFD9FFD950FE0FE96EFF0EDA20EA6E3C
:10104000EF508B6E8D6AD950FE0FE96EFF0EDA20DD
:10105000EA6EEF50080B01E08D80D950FE0FE96E6B
:10106000FF0EDA20EA6EEF50100B01E08D82D950AE
:10107000FE0FE96EFF0EDA20EA6EEF50200B01E062
:101080008D84E552E7CFD9FF1200946A966A120068
:10109000F86AD09EEA6AE96AC00EC1160F0EC11244
:1010A000C090C092C094C09EC280C69A010EC66E07
:1010B000C76AD190D56ACD6ACA6ACB6A070EB46E88
:1010C000A19CB56AF26AD16A1200818E818C939CD0
:1010D000939E1200D9CFE6FFE1CFD9FF040EE1269F
:1010E000D950FD0FE96EFF0EDA20EA6EEECF05F063
:1010F000EDCF06F0EE06000EEF5A0550061025E083
:10110000D9CFE9FFDACFEAFFEE6AEE6AEE6AEE6A5D
:10111000D9CFE9FFDACFEAFFD890030EEB50000AEF
:1011200008E6C20EEE5C010EEE58000EEE58000E00
:10113000EE580AE2D9CFE9FFDACFEAFFEE2A000E35
:10114000EE22EE22EE22E4D7CBD7040EE15C02E2DF
:10115000E16AE552E16EE552E7CFD9FF1200D9CF3F
:10116000E6FFE1CFD9FFD950FD0FE96EFF0EDA207F
:10117000EA6EEECF05F0EDCF06F0EE06000EEF5A68
:101180000550061002E00000EED7E552E7CFD9FF88
:101190001200750EE66EE9EC0AF0E552F288F28E66
:1011A0001200D9CFE6FFE1CFD9FF060EE126000EEF
:1011B000E66EE66A29EC0BF0E552E5528150010B30
:1011C000010A010801E1FAD70AEC0BF0F3CF05F0B0
:1011D000F4CF06F0D950020FE96EDACFEAFF05C06E
:1011E000EEFF06C0EDFFD950020FE96EDACFEAFF3D
:1011F000EECF05F0EFCF06F0C00E055C030E0658EB
:101200000BE3D950020FE96EDACFEAFF800ED880E7
:10121000EE54070EED5402E2000EC5D0D950040F73
:10122000E96EDACFEAFFEF6AD950040FE96EDACF40
:10123000EAFFEFCF05F00D0E055C6EE28150010B69
:10124000010AE66ED950050FE96EDACFEAFFE552E2
:10125000E750EF6E000EE66EE66A29EC0BF0E55201
:10126000E5528150010B010A056ED950050FE96E58
:10127000DACFEAFFEF50055C1DE10AEC0BF0F3CF8B
:1012800005F0F4CF06F0D950020FE96EDACFEAFF8D
:1012900005C0EEFF06C0EDFFD950020FE96EDACFB0
:1012A000EAFF800ED880EE54070EED5402E2000EE5
:1012B0007AD0D7D7D9CFE9FFDACFEAFF010ED8909D
:1012C000EE36ED36E806FBE1D950050FE96EDACFD0
:1012D000EAFFEF5007E1D9CFE9FFDACFEAFFEE2AC4
:1012E000000EEF22000EE66EE66A29EC0BF0E552E6
:1012F000E5520AEC0BF0F3CF05F0F4CF06F01C0E2C
:10130000055C070E065801E2F4D7D950040FE96EC8
:10131000DACFEAFFEF2A88D7D9CFE9FFDACFEAFFA1
:10132000EECF05F0EFCF06F00550300E0612D9CF04
:10133000E9FFDACFEAFF05C0EEFF06C0EDFFD9CF27
:10134000E9FFDACFEAFFEECF05F0EFCF06F0FF0EB0
:101350000516370E0616D9CFE9FFDACFEAFF05C02A
:10136000EEFF06C0EDFFD9CFE9FFDACFEAFFEECFFF
:1013700005F0EFCF06F03F0E0514016ED9CFE9FF5F
:10138000DACFEAFFEECF05F0EFCF06F0060ED890E9
:1013900006320532E804FBE11F0E0514006E010E53
:1013A000026EF29800D0056E060EE15C02E2E16A80
:1013B000E552E16E0550E552E7CFD9FF1200D9CFD3
:1013C000E6FFE1CFD9FFD950FD0FE96EFF0EDA201D
:1013D000EA6EEECF05F0EFCF06F00550CE6ED95095
:1013E000FD0FE96EFF0EDA20EA6EEECF05F0EFCFCB
:1013F00006F006C005F0066A0550CF6EE552E7CF4D
:10140000D9FF1200D9CFE6FFE1CFD9FF020EE126C6
:10141000080ECE24056ECF50055204E0E846FE0BC0
:101420000506FCE1E66ED9CFE9FFDACFEAFFE55227
:10143000E750EE6EED6AD9CFE9FFDACFEAFFEECFE3
:1014400005F0EFCF06F005C0F3FF06C0F4FF020E73
:10145000E15C03E200D0E16AE552E16EE552E7CFDC
:10146000D9FF1200DACFE4FFE2CFDAFFE9CFE4FFE1
:10147000EACFE4FFF6CFE4FFF7CFE4FFF5CFE4FFD8
:10148000F3CFE4FFF4CFE4FFFACFE4FF00EE03F084
:10149000020EE80403E3EECFE4FFFBD700EE05F015
:1014A000020EE80403E3EECFE4FFFBD7E652F2A21C
:1014B00003D0819E76DE818EE55200EE06F0020EAC
:1014C000E80403E3E5CFEDFFFBD700EE04F0020EE6
:1014D000E80403E3E5CFEDFFFBD7E5CFFAFFE5CF67
:1014E000F4FFE5CFF3FFE5CFF5FFE5CFF7FFE5CF5D
:1014F000F6FFE5CFEAFFE5CFE9FFE5CFDAFF110020
:10150000C7DD956A816A926A806A818E939C939EF8
:1015100093803FDE020406E10150806E0050836E2E
:10152000026AF2880A0EE66EE66AD4DDE552E552FA
:04153000F1D71200DD
:0C1534002A0EF66E100EF76E000EF86E18
:1015400000010900F550656F0900F550666F03E171
:10155000656701D03DD00900F550606F0900F55076
:10156000616F0900F550626F09000900F550E96EDE
:101570000900F550EA6E090009000900F550636F93
:101580000900F550646F09000900F6CF67F0F7CF46
:1015900068F0F8CF69F060C0F6FF61C0F7FF62C085
:1015A000F8FF0001635302E1645307E00900F550BE
:1015B000EE6E6307F8E26407F9D767C0F6FF68C00C
:1015C000F7FF69C0F8FF00016507000E665BBFD733
:0215D000120007
:0E15D200D9CFE6FFDACFE6FFE1CFD9FFE2CFB7
:1015E000DAFFFD0EDB507E0BCD6EFD0EDBAC02D0C4
:1015F000CD8E01D0CD9ECF6ACE6A9E90DBAE02D05A
:101600009D8001D09D90CD80E552E5CFDAFFE7CFF8
:04161000D9FF1200EC
:0C161400D9CFE6FFDACFE6FFE1CFD9FF27
:10162000E2CFDAFFE652E652CE50DF6E010ECFCFA8
:10163000DBFFDECF05F0DDCF06F005C0F3FF06C00F
:10164000F4FFE552E552E552E5CFDAFFE7CFD9FFE7
:02165000120086
:0E165200D9CFE6FFDACFE6FFE1CFD9FFE2CF36
:10166000DAFFE652E652FC0EDBCFDEFFDBCFDDFF1A
:10167000010EDB50CF6EDF50CE6EE552E552E552E3
:0A168000E5CFDAFFE7CFD9FF120033
:06168A00000EF36E00EEFD
:1016900000F0040E01D81200EA6002D0EE6AFCD716
:0A16A000F350E9601200EE6AFCD777
:0616AA0013EE00F023EE38
:1016B00000F0F86A049C9AEC0AF063EC0BF080EC02
:0616C0000AF0FBD7120046
:0216C600120010
:020000040030CA
:0100000020DF
:0100010002FC
:010002003FBE
:010003001EDE
:010005008179
:010006008178
:010008000FE8
:01000900C036
:01000A000FE6
:01000B00E014
:01000C000FE4
:01000D0040B2
:00000001FF
