:020000040000FA
:06000000E0EF09F0120020
:06100000E0EF09F0120010
:02102A000000C4
:04102C00D9CFE6FF33
:10103000E1CFD9FFFE0EDB50826E846AFE0EDBB676
:101040008480DBB88482DBBA8484E552E7CFD9FFA1
:101050001200F86AD09EEA6AE96AC00EC1160F0E45
:10106000C112070EB46EC090C092C094C09EC280E0
:10107000C69A010EC66EC76AD190800ED56ECD6A33
:10108000CA6ACB6AB46AA19CB56AF26AD16A1200D4
:10109000D9CFE6FFE1CFD9FF040EE126FD0EDBCF6D
:1010A00002F0DB06FE0EDBCF03F001E2DB060250AE
:1010B000031023E0DE6ADE6ADE6ADD6ADD52DD529D
:1010C000D9CFE9FFDACFEAFFD890030EEB50000A40
:1010D00008E6C20EEE5C010EEE58000EEE58000E51
:1010E000EE580AE2D9CFE9FFDACFEAFFEE2A000E86
:1010F000EE22EE22EE22E4D7D1D7040EE15C02E22A
:10110000E16AE552E16EE552E7CFD9FF1200D9CF8F
:10111000E6FFE1CFD9FFFD0EDBCF02F0DB06FE0ECE
:10112000DBCF03F001E2DB060250031002E0000017
:10113000F2D7E552E7CFD9FF120093949396969495
:1011400094941200D9CFE6FFE1CFD9FF8194819624
:1011500084948294FE0EDBA006D0DB5000016A2747
:10116000D8B0818405D0DB5000016A27D8B08186D1
:10117000FD0EDBA005D0DB506B27D8B0848404D0F3
:10118000DB506B27D8B08284E552E7CFD9FF12003D
:10119000929092921200D9CFE6FFE1CFD9FFFE0ED6
:1011A000DBCFF3FFF390F342F3CFDBFF800E026E51
:1011B000FE0EDBCFE7FF0250E726FE0EE7CFDBFF98
:1011C0008080FE0EDBCFF3FFDB06F350000907E063
:1011D000040EE66EE66A9BDFE552E552F2D7809098
:1011E000FD0EDBCFF3FFF390F342F3CFDBFF800E76
:1011F000026EFD0EDBCFE7FF0250E726FD0EE7CFC4
:10120000DBFF8082FD0EDBCFF3FFDB06F35000092E
:1012100007E0040EE66EE66A7ADFE552E552F2D7A1
:101220008092E552E7CFD9FF1200D9CFE6FFE1CF98
:10123000D9FF030EE1260DDFABDF0F0EC16E956AFD
:10124000010E836EDB6A020EDB68C80EDF6EDF50B4
:10125000DF06000910E0020EDBCFE6FF010EDBCF58
:10126000E6FF99DFE552E552120EE66EE66A10DF00
:10127000E552E552ECD7020E836EDE52800EDD6E33
:10128000F36E020EF3CFDBFFC80EDF6EDF50DF061A
:10129000000910E0020EDBCFE6FF010EDBCFE6FF18
:1012A0007ADFE552E552120EE66EE66AF1DEE552AD
:1012B000E552ECD7040E836E010EDB68020EDB6A8A
:1012C000C80EDF6EDF50DF06000910E0020EDBCF34
:1012D000E6FF010EDBCFE6FF5EDFE552E552120EC0
:1012E000E66EE66AD5DEE552E552ECD7A9D7030EE5
:1012F000E15C02E2E16AE552E16EE552E7CFD9FF37
:021300001200D9
:0E1302002A0EF66E100EF76E000EF86E000149
:101310000900F550656F0900F550666F03E16567D8
:1013200001D03DD00900F550606F0900F550616FA4
:101330000900F550626F09000900F550E96E0900D7
:10134000F550EA6E090009000900F550636F0900C5
:10135000F550646F09000900F6CF67F0F7CF68F029
:10136000F8CF69F060C0F6FF61C0F7FF62C0F8FF18
:101370000001635302E1645307E00900F550EE6E8B
:101380006307F8E26407F9D767C0F6FF68C0F7FFA4
:1013900069C0F8FF00016507000E665BBFD7120049
:1013A000000EF36E00EE00F0040E01D81200EA60A9
:1013B00002D0EE6AFCD7F350E9601200EE6AFCD767
:1013C00013EE00F023EE00F0F86A019C81EC09F0C6
:0C13D000EEEC09F015EC09F0FBD7120060
:0213DC001200FD
:020000040030CA
:0100000020DF
:0100010002FC
:010002003FBE
:010003001EDE
:010005008179
:010006008178
:010008000FE8
:01000900C036
:01000A000FE6
:01000B00E014
:01000C000FE4
:01000D0040B2
:00000001FF
